{
  "contractName": "Mucahid",
  "abi": [
    {
      "inputs": [
        {
          "internalType": "string",
          "name": "_name",
          "type": "string"
        },
        {
          "internalType": "string",
          "name": "_symbol",
          "type": "string"
        },
        {
          "internalType": "string",
          "name": "_initBaseURI",
          "type": "string"
        },
        {
          "internalType": "address",
          "name": "_payments",
          "type": "address"
        }
      ],
      "stateMutability": "nonpayable",
      "type": "constructor"
    },
    {
      "anonymous": false,
      "inputs": [
        {
          "indexed": true,
          "internalType": "address",
          "name": "owner",
          "type": "address"
        },
        {
          "indexed": true,
          "internalType": "address",
          "name": "approved",
          "type": "address"
        },
        {
          "indexed": true,
          "internalType": "uint256",
          "name": "tokenId",
          "type": "uint256"
        }
      ],
      "name": "Approval",
      "type": "event"
    },
    {
      "anonymous": false,
      "inputs": [
        {
          "indexed": true,
          "internalType": "address",
          "name": "owner",
          "type": "address"
        },
        {
          "indexed": true,
          "internalType": "address",
          "name": "operator",
          "type": "address"
        },
        {
          "indexed": false,
          "internalType": "bool",
          "name": "approved",
          "type": "bool"
        }
      ],
      "name": "ApprovalForAll",
      "type": "event"
    },
    {
      "anonymous": false,
      "inputs": [
        {
          "indexed": true,
          "internalType": "address",
          "name": "previousOwner",
          "type": "address"
        },
        {
          "indexed": true,
          "internalType": "address",
          "name": "newOwner",
          "type": "address"
        }
      ],
      "name": "OwnershipTransferred",
      "type": "event"
    },
    {
      "anonymous": false,
      "inputs": [
        {
          "indexed": false,
          "internalType": "address",
          "name": "from",
          "type": "address"
        },
        {
          "indexed": false,
          "internalType": "enum Mucahid.MessageType",
          "name": "messageType",
          "type": "uint8"
        },
        {
          "indexed": false,
          "internalType": "string",
          "name": "title",
          "type": "string"
        },
        {
          "indexed": false,
          "internalType": "string",
          "name": "message",
          "type": "string"
        },
        {
          "indexed": false,
          "internalType": "uint256",
          "name": "timestamp",
          "type": "uint256"
        }
      ],
      "name": "Transfer",
      "type": "event"
    },
    {
      "anonymous": false,
      "inputs": [
        {
          "indexed": true,
          "internalType": "address",
          "name": "from",
          "type": "address"
        },
        {
          "indexed": true,
          "internalType": "address",
          "name": "to",
          "type": "address"
        },
        {
          "indexed": true,
          "internalType": "uint256",
          "name": "tokenId",
          "type": "uint256"
        }
      ],
      "name": "Transfer",
      "type": "event"
    },
    {
      "inputs": [
        {
          "internalType": "address",
          "name": "to",
          "type": "address"
        },
        {
          "internalType": "uint256",
          "name": "tokenId",
          "type": "uint256"
        }
      ],
      "name": "approve",
      "outputs": [],
      "stateMutability": "nonpayable",
      "type": "function"
    },
    {
      "inputs": [
        {
          "internalType": "address",
          "name": "owner",
          "type": "address"
        }
      ],
      "name": "balanceOf",
      "outputs": [
        {
          "internalType": "uint256",
          "name": "",
          "type": "uint256"
        }
      ],
      "stateMutability": "view",
      "type": "function",
      "constant": true
    },
    {
      "inputs": [],
      "name": "baseExtension",
      "outputs": [
        {
          "internalType": "string",
          "name": "",
          "type": "string"
        }
      ],
      "stateMutability": "view",
      "type": "function",
      "constant": true
    },
    {
      "inputs": [],
      "name": "baseURI",
      "outputs": [
        {
          "internalType": "string",
          "name": "",
          "type": "string"
        }
      ],
      "stateMutability": "view",
      "type": "function",
      "constant": true
    },
    {
      "inputs": [],
      "name": "boardMessageCost",
      "outputs": [
        {
          "internalType": "uint256",
          "name": "",
          "type": "uint256"
        }
      ],
      "stateMutability": "view",
      "type": "function",
      "constant": true
    },
    {
      "inputs": [
        {
          "internalType": "uint256",
          "name": "tokenId",
          "type": "uint256"
        }
      ],
      "name": "getApproved",
      "outputs": [
        {
          "internalType": "address",
          "name": "",
          "type": "address"
        }
      ],
      "stateMutability": "view",
      "type": "function",
      "constant": true
    },
    {
      "inputs": [
        {
          "internalType": "address",
          "name": "owner",
          "type": "address"
        },
        {
          "internalType": "address",
          "name": "operator",
          "type": "address"
        }
      ],
      "name": "isApprovedForAll",
      "outputs": [
        {
          "internalType": "bool",
          "name": "",
          "type": "bool"
        }
      ],
      "stateMutability": "view",
      "type": "function",
      "constant": true
    },
    {
      "inputs": [],
      "name": "maxMintAmount",
      "outputs": [
        {
          "internalType": "uint256",
          "name": "",
          "type": "uint256"
        }
      ],
      "stateMutability": "view",
      "type": "function",
      "constant": true
    },
    {
      "inputs": [],
      "name": "maxSupply",
      "outputs": [
        {
          "internalType": "uint256",
          "name": "",
          "type": "uint256"
        }
      ],
      "stateMutability": "view",
      "type": "function",
      "constant": true
    },
    {
      "inputs": [],
      "name": "messageCost",
      "outputs": [
        {
          "internalType": "uint256",
          "name": "",
          "type": "uint256"
        }
      ],
      "stateMutability": "view",
      "type": "function",
      "constant": true
    },
    {
      "inputs": [],
      "name": "name",
      "outputs": [
        {
          "internalType": "string",
          "name": "",
          "type": "string"
        }
      ],
      "stateMutability": "view",
      "type": "function",
      "constant": true
    },
    {
      "inputs": [],
      "name": "owner",
      "outputs": [
        {
          "internalType": "address",
          "name": "",
          "type": "address"
        }
      ],
      "stateMutability": "view",
      "type": "function",
      "constant": true
    },
    {
      "inputs": [
        {
          "internalType": "uint256",
          "name": "tokenId",
          "type": "uint256"
        }
      ],
      "name": "ownerOf",
      "outputs": [
        {
          "internalType": "address",
          "name": "",
          "type": "address"
        }
      ],
      "stateMutability": "view",
      "type": "function",
      "constant": true
    },
    {
      "inputs": [],
      "name": "paused",
      "outputs": [
        {
          "internalType": "bool",
          "name": "",
          "type": "bool"
        }
      ],
      "stateMutability": "view",
      "type": "function",
      "constant": true
    },
    {
      "inputs": [],
      "name": "payments",
      "outputs": [
        {
          "internalType": "address payable",
          "name": "",
          "type": "address"
        }
      ],
      "stateMutability": "view",
      "type": "function",
      "constant": true
    },
    {
      "inputs": [],
      "name": "renounceOwnership",
      "outputs": [],
      "stateMutability": "nonpayable",
      "type": "function"
    },
    {
      "inputs": [
        {
          "internalType": "address",
          "name": "from",
          "type": "address"
        },
        {
          "internalType": "address",
          "name": "to",
          "type": "address"
        },
        {
          "internalType": "uint256",
          "name": "tokenId",
          "type": "uint256"
        }
      ],
      "name": "safeTransferFrom",
      "outputs": [],
      "stateMutability": "nonpayable",
      "type": "function"
    },
    {
      "inputs": [
        {
          "internalType": "address",
          "name": "from",
          "type": "address"
        },
        {
          "internalType": "address",
          "name": "to",
          "type": "address"
        },
        {
          "internalType": "uint256",
          "name": "tokenId",
          "type": "uint256"
        },
        {
          "internalType": "bytes",
          "name": "_data",
          "type": "bytes"
        }
      ],
      "name": "safeTransferFrom",
      "outputs": [],
      "stateMutability": "nonpayable",
      "type": "function"
    },
    {
      "inputs": [
        {
          "internalType": "address",
          "name": "operator",
          "type": "address"
        },
        {
          "internalType": "bool",
          "name": "approved",
          "type": "bool"
        }
      ],
      "name": "setApprovalForAll",
      "outputs": [],
      "stateMutability": "nonpayable",
      "type": "function"
    },
    {
      "inputs": [
        {
          "internalType": "bytes4",
          "name": "interfaceId",
          "type": "bytes4"
        }
      ],
      "name": "supportsInterface",
      "outputs": [
        {
          "internalType": "bool",
          "name": "",
          "type": "bool"
        }
      ],
      "stateMutability": "view",
      "type": "function",
      "constant": true
    },
    {
      "inputs": [],
      "name": "symbol",
      "outputs": [
        {
          "internalType": "string",
          "name": "",
          "type": "string"
        }
      ],
      "stateMutability": "view",
      "type": "function",
      "constant": true
    },
    {
      "inputs": [
        {
          "internalType": "uint256",
          "name": "index",
          "type": "uint256"
        }
      ],
      "name": "tokenByIndex",
      "outputs": [
        {
          "internalType": "uint256",
          "name": "",
          "type": "uint256"
        }
      ],
      "stateMutability": "view",
      "type": "function",
      "constant": true
    },
    {
      "inputs": [
        {
          "internalType": "address",
          "name": "owner",
          "type": "address"
        },
        {
          "internalType": "uint256",
          "name": "index",
          "type": "uint256"
        }
      ],
      "name": "tokenOfOwnerByIndex",
      "outputs": [
        {
          "internalType": "uint256",
          "name": "",
          "type": "uint256"
        }
      ],
      "stateMutability": "view",
      "type": "function",
      "constant": true
    },
    {
      "inputs": [],
      "name": "totalSupply",
      "outputs": [
        {
          "internalType": "uint256",
          "name": "",
          "type": "uint256"
        }
      ],
      "stateMutability": "view",
      "type": "function",
      "constant": true
    },
    {
      "inputs": [
        {
          "internalType": "address",
          "name": "from",
          "type": "address"
        },
        {
          "internalType": "address",
          "name": "to",
          "type": "address"
        },
        {
          "internalType": "uint256",
          "name": "tokenId",
          "type": "uint256"
        }
      ],
      "name": "transferFrom",
      "outputs": [],
      "stateMutability": "nonpayable",
      "type": "function"
    },
    {
      "inputs": [
        {
          "internalType": "address",
          "name": "newOwner",
          "type": "address"
        }
      ],
      "name": "transferOwnership",
      "outputs": [],
      "stateMutability": "nonpayable",
      "type": "function"
    },
    {
      "inputs": [
        {
          "internalType": "address",
          "name": "",
          "type": "address"
        }
      ],
      "name": "whitelisted",
      "outputs": [
        {
          "internalType": "bool",
          "name": "",
          "type": "bool"
        }
      ],
      "stateMutability": "view",
      "type": "function",
      "constant": true
    },
    {
      "inputs": [
        {
          "internalType": "address",
          "name": "_to",
          "type": "address"
        },
        {
          "internalType": "uint256",
          "name": "_mintAmount",
          "type": "uint256"
        },
        {
          "internalType": "uint256",
          "name": "cost",
          "type": "uint256"
        }
      ],
      "name": "mint",
      "outputs": [],
      "stateMutability": "payable",
      "type": "function",
      "payable": true
    },
    {
      "inputs": [
        {
          "internalType": "address",
          "name": "_owner",
          "type": "address"
        }
      ],
      "name": "walletOfOwner",
      "outputs": [
        {
          "internalType": "uint256[]",
          "name": "",
          "type": "uint256[]"
        }
      ],
      "stateMutability": "view",
      "type": "function",
      "constant": true
    },
    {
      "inputs": [
        {
          "internalType": "uint256",
          "name": "tokenId",
          "type": "uint256"
        }
      ],
      "name": "tokenURI",
      "outputs": [
        {
          "internalType": "string",
          "name": "",
          "type": "string"
        }
      ],
      "stateMutability": "view",
      "type": "function",
      "constant": true
    },
    {
      "inputs": [
        {
          "internalType": "uint256",
          "name": "_newCost",
          "type": "uint256"
        }
      ],
      "name": "setMessageCost",
      "outputs": [],
      "stateMutability": "nonpayable",
      "type": "function"
    },
    {
      "inputs": [
        {
          "internalType": "uint256",
          "name": "_newCost",
          "type": "uint256"
        }
      ],
      "name": "setBoardMessageCost",
      "outputs": [],
      "stateMutability": "nonpayable",
      "type": "function"
    },
    {
      "inputs": [
        {
          "internalType": "uint256",
          "name": "_newmaxMintAmount",
          "type": "uint256"
        }
      ],
      "name": "setmaxMintAmount",
      "outputs": [],
      "stateMutability": "nonpayable",
      "type": "function"
    },
    {
      "inputs": [
        {
          "internalType": "string",
          "name": "_newBaseURI",
          "type": "string"
        }
      ],
      "name": "setBaseURI",
      "outputs": [],
      "stateMutability": "nonpayable",
      "type": "function"
    },
    {
      "inputs": [
        {
          "internalType": "string",
          "name": "_newBaseExtension",
          "type": "string"
        }
      ],
      "name": "setBaseExtension",
      "outputs": [],
      "stateMutability": "nonpayable",
      "type": "function"
    },
    {
      "inputs": [
        {
          "internalType": "bool",
          "name": "_state",
          "type": "bool"
        }
      ],
      "name": "pause",
      "outputs": [],
      "stateMutability": "nonpayable",
      "type": "function"
    },
    {
      "inputs": [
        {
          "internalType": "address",
          "name": "_user",
          "type": "address"
        }
      ],
      "name": "whitelistUser",
      "outputs": [],
      "stateMutability": "nonpayable",
      "type": "function"
    },
    {
      "inputs": [
        {
          "internalType": "address",
          "name": "_user",
          "type": "address"
        }
      ],
      "name": "removeWhitelistUser",
      "outputs": [],
      "stateMutability": "nonpayable",
      "type": "function"
    },
    {
      "inputs": [],
      "name": "withdraw",
      "outputs": [],
      "stateMutability": "payable",
      "type": "function",
      "payable": true
    },
    {
      "inputs": [
        {
          "internalType": "address",
          "name": "from",
          "type": "address"
        },
        {
          "internalType": "string",
          "name": "title",
          "type": "string"
        },
        {
          "internalType": "string",
          "name": "message",
          "type": "string"
        },
        {
          "internalType": "enum Mucahid.MessageType",
          "name": "messageType",
          "type": "uint8"
        }
      ],
      "name": "addToBlockchain",
      "outputs": [],
      "stateMutability": "payable",
      "type": "function",
      "payable": true
    },
    {
      "inputs": [],
      "name": "getMessagesTransactions",
      "outputs": [
        {
          "components": [
            {
              "internalType": "address",
              "name": "from",
              "type": "address"
            },
            {
              "internalType": "string",
              "name": "title",
              "type": "string"
            },
            {
              "internalType": "string",
              "name": "message",
              "type": "string"
            },
            {
              "internalType": "uint256",
              "name": "timestamp",
              "type": "uint256"
            }
          ],
          "internalType": "struct Mucahid.TransferStruct[]",
          "name": "",
          "type": "tuple[]"
        }
      ],
      "stateMutability": "view",
      "type": "function",
      "constant": true
    },
    {
      "inputs": [],
      "name": "getMessagesTransactionCount",
      "outputs": [
        {
          "internalType": "uint256",
          "name": "",
          "type": "uint256"
        }
      ],
      "stateMutability": "view",
      "type": "function",
      "constant": true
    },
    {
      "inputs": [],
      "name": "getAllBoardTransactions",
      "outputs": [
        {
          "components": [
            {
              "internalType": "address",
              "name": "from",
              "type": "address"
            },
            {
              "internalType": "string",
              "name": "title",
              "type": "string"
            },
            {
              "internalType": "string",
              "name": "message",
              "type": "string"
            },
            {
              "internalType": "uint256",
              "name": "timestamp",
              "type": "uint256"
            }
          ],
          "internalType": "struct Mucahid.TransferStruct[]",
          "name": "",
          "type": "tuple[]"
        }
      ],
      "stateMutability": "view",
      "type": "function",
      "constant": true
    },
    {
      "inputs": [],
      "name": "getAllBoardTransactionCount",
      "outputs": [
        {
          "internalType": "uint256",
          "name": "",
          "type": "uint256"
        }
      ],
      "stateMutability": "view",
      "type": "function",
      "constant": true
    }
  ],
  "bytecode": "0x60806040526040518060400160405280600581526020017f2e6a736f6e000000000000000000000000000000000000000000000000000000815250600c90805190602001906200005192919062000e62565b506611c37937e08000600d55662386f26fc10000600e55612710600f5560146010556000601160006101000a81548160ff0219169083151502179055503480156200009b57600080fd5b506040516200699e3803806200699e8339818101604052810190620000c1919062001114565b83838160009080519060200190620000db92919062000e62565b508060019080519060200190620000f492919062000e62565b505050620001176200010b6200018960201b60201c565b6200019160201b60201c565b62000128826200025760201b60201c565b80601360006101000a81548173ffffffffffffffffffffffffffffffffffffffff021916908373ffffffffffffffffffffffffffffffffffffffff1602179055506200017f33600a600d546200030260201b60201c565b505050506200181f565b600033905090565b6000600a60009054906101000a900473ffffffffffffffffffffffffffffffffffffffff16905081600a60006101000a81548173ffffffffffffffffffffffffffffffffffffffff021916908373ffffffffffffffffffffffffffffffffffffffff1602179055508173ffffffffffffffffffffffffffffffffffffffff168173ffffffffffffffffffffffffffffffffffffffff167f8be0079c531659141344cd1fd0a4f28419497f9722a3daafe3b4186f6b6457e060405160405180910390a35050565b620002676200018960201b60201c565b73ffffffffffffffffffffffffffffffffffffffff166200028d6200045360201b60201c565b73ffffffffffffffffffffffffffffffffffffffff1614620002e6576040517f08c379a0000000000000000000000000000000000000000000000000000000008152600401620002dd9062001244565b60405180910390fd5b80600b9080519060200190620002fe92919062000e62565b5050565b6000620003146200047d60201b60201c565b9050601160009054906101000a900460ff16156200033157600080fd5b600f546001826200034391906200129f565b11156200034f57600080fd5b6200035f6200045360201b60201c565b73ffffffffffffffffffffffffffffffffffffffff163373ffffffffffffffffffffffffffffffffffffffff1614620004085760011515601260003373ffffffffffffffffffffffffffffffffffffffff1673ffffffffffffffffffffffffffffffffffffffff16815260200190815260200160002060009054906101000a900460ff1615151462000407578282620003f99190620012fc565b3410156200040657600080fd5b5b5b6000600190505b8381116200044c57620004368582846200042a91906200129f565b6200048a60201b60201c565b808062000443906200135d565b9150506200040f565b5050505050565b6000600a60009054906101000a900473ffffffffffffffffffffffffffffffffffffffff16905090565b6000600880549050905090565b620004ac828260405180602001604052806000815250620004b060201b60201c565b5050565b620004c283836200051e60201b60201c565b620004d760008484846200070460201b60201c565b62000519576040517f08c379a0000000000000000000000000000000000000000000000000000000008152600401620005109062001421565b60405180910390fd5b505050565b600073ffffffffffffffffffffffffffffffffffffffff168273ffffffffffffffffffffffffffffffffffffffff16141562000591576040517f08c379a0000000000000000000000000000000000000000000000000000000008152600401620005889062001493565b60405180910390fd5b620005a281620008ae60201b60201c565b15620005e5576040517f08c379a0000000000000000000000000000000000000000000000000000000008152600401620005dc9062001505565b60405180910390fd5b620005f9600083836200091a60201b60201c565b6001600360008473ffffffffffffffffffffffffffffffffffffffff1673ffffffffffffffffffffffffffffffffffffffff16815260200190815260200160002060008282546200064b91906200129f565b92505081905550816002600083815260200190815260200160002060006101000a81548173ffffffffffffffffffffffffffffffffffffffff021916908373ffffffffffffffffffffffffffffffffffffffff160217905550808273ffffffffffffffffffffffffffffffffffffffff16600073ffffffffffffffffffffffffffffffffffffffff167fddf252ad1be2c89b69c2b068fc378daa952ba7f163c4a11628f55a4df523b3ef60405160405180910390a45050565b6000620007328473ffffffffffffffffffffffffffffffffffffffff1662000a6160201b620024521760201c565b15620008a1578373ffffffffffffffffffffffffffffffffffffffff1663150b7a02620007646200018960201b60201c565b8786866040518563ffffffff1660e01b8152600401620007889493929190620015a6565b6020604051808303816000875af1925050508015620007c757506040513d601f19601f82011682018060405250810190620007c4919062001657565b60015b62000850573d8060008114620007fa576040519150601f19603f3d011682016040523d82523d6000602084013e620007ff565b606091505b5060008151141562000848576040517f08c379a00000000000000000000000000000000000000000000000000000000081526004016200083f9062001421565b60405180910390fd5b805181602001fd5b63150b7a0260e01b7bffffffffffffffffffffffffffffffffffffffffffffffffffffffff1916817bffffffffffffffffffffffffffffffffffffffffffffffffffffffff191614915050620008a6565b600190505b949350505050565b60008073ffffffffffffffffffffffffffffffffffffffff166002600084815260200190815260200160002060009054906101000a900473ffffffffffffffffffffffffffffffffffffffff1673ffffffffffffffffffffffffffffffffffffffff1614159050919050565b6200093283838362000a7460201b620024651760201c565b600073ffffffffffffffffffffffffffffffffffffffff168373ffffffffffffffffffffffffffffffffffffffff1614156200097f57620009798162000a7960201b60201c565b620009c7565b8173ffffffffffffffffffffffffffffffffffffffff168373ffffffffffffffffffffffffffffffffffffffff1614620009c657620009c5838262000ac260201b60201c565b5b5b600073ffffffffffffffffffffffffffffffffffffffff168273ffffffffffffffffffffffffffffffffffffffff16141562000a145762000a0e8162000c3f60201b60201c565b62000a5c565b8273ffffffffffffffffffffffffffffffffffffffff168273ffffffffffffffffffffffffffffffffffffffff161462000a5b5762000a5a828262000d1b60201b60201c565b5b5b505050565b600080823b905060008111915050919050565b505050565b6008805490506009600083815260200190815260200160002081905550600881908060018154018082558091505060019003906000526020600020016000909190919091505550565b6000600162000adc8462000da760201b620015a61760201c565b62000ae8919062001689565b905060006007600084815260200190815260200160002054905081811462000bce576000600660008673ffffffffffffffffffffffffffffffffffffffff1673ffffffffffffffffffffffffffffffffffffffff168152602001908152602001600020600084815260200190815260200160002054905080600660008773ffffffffffffffffffffffffffffffffffffffff1673ffffffffffffffffffffffffffffffffffffffff168152602001908152602001600020600084815260200190815260200160002081905550816007600083815260200190815260200160002081905550505b6007600084815260200190815260200160002060009055600660008573ffffffffffffffffffffffffffffffffffffffff1673ffffffffffffffffffffffffffffffffffffffff16815260200190815260200160002060008381526020019081526020016000206000905550505050565b6000600160088054905062000c55919062001689565b905060006009600084815260200190815260200160002054905060006008838154811062000c885762000c87620016c4565b5b90600052602060002001549050806008838154811062000cad5762000cac620016c4565b5b90600052602060002001819055508160096000838152602001908152602001600020819055506009600085815260200190815260200160002060009055600880548062000cff5762000cfe620016f3565b5b6001900381819060005260206000200160009055905550505050565b600062000d338362000da760201b620015a61760201c565b905081600660008573ffffffffffffffffffffffffffffffffffffffff1673ffffffffffffffffffffffffffffffffffffffff168152602001908152602001600020600083815260200190815260200160002081905550806007600084815260200190815260200160002081905550505050565b60008073ffffffffffffffffffffffffffffffffffffffff168273ffffffffffffffffffffffffffffffffffffffff16141562000e1b576040517f08c379a000000000000000000000000000000000000000000000000000000000815260040162000e129062001798565b60405180910390fd5b600360008373ffffffffffffffffffffffffffffffffffffffff1673ffffffffffffffffffffffffffffffffffffffff168152602001908152602001600020549050919050565b82805462000e7090620017e9565b90600052602060002090601f01602090048101928262000e94576000855562000ee0565b82601f1062000eaf57805160ff191683800117855562000ee0565b8280016001018555821562000ee0579182015b8281111562000edf57825182559160200191906001019062000ec2565b5b50905062000eef919062000ef3565b5090565b5b8082111562000f0e57600081600090555060010162000ef4565b5090565b6000604051905090565b600080fd5b600080fd5b600080fd5b600080fd5b6000601f19601f8301169050919050565b7f4e487b7100000000000000000000000000000000000000000000000000000000600052604160045260246000fd5b62000f7b8262000f30565b810181811067ffffffffffffffff8211171562000f9d5762000f9c62000f41565b5b80604052505050565b600062000fb262000f12565b905062000fc0828262000f70565b919050565b600067ffffffffffffffff82111562000fe35762000fe262000f41565b5b62000fee8262000f30565b9050602081019050919050565b60005b838110156200101b57808201518184015260208101905062000ffe565b838111156200102b576000848401525b50505050565b600062001048620010428462000fc5565b62000fa6565b90508281526020810184848401111562001067576200106662000f2b565b5b6200107484828562000ffb565b509392505050565b600082601f83011262001094576200109362000f26565b5b8151620010a684826020860162001031565b91505092915050565b600073ffffffffffffffffffffffffffffffffffffffff82169050919050565b6000620010dc82620010af565b9050919050565b620010ee81620010cf565b8114620010fa57600080fd5b50565b6000815190506200110e81620010e3565b92915050565b6000806000806080858703121562001131576200113062000f1c565b5b600085015167ffffffffffffffff81111562001152576200115162000f21565b5b62001160878288016200107c565b945050602085015167ffffffffffffffff81111562001184576200118362000f21565b5b62001192878288016200107c565b935050604085015167ffffffffffffffff811115620011b657620011b562000f21565b5b620011c4878288016200107c565b9250506060620011d787828801620010fd565b91505092959194509250565b600082825260208201905092915050565b7f4f776e61626c653a2063616c6c6572206973206e6f7420746865206f776e6572600082015250565b60006200122c602083620011e3565b91506200123982620011f4565b602082019050919050565b600060208201905081810360008301526200125f816200121d565b9050919050565b6000819050919050565b7f4e487b7100000000000000000000000000000000000000000000000000000000600052601160045260246000fd5b6000620012ac8262001266565b9150620012b98362001266565b9250827fffffffffffffffffffffffffffffffffffffffffffffffffffffffffffffffff03821115620012f157620012f062001270565b5b828201905092915050565b6000620013098262001266565b9150620013168362001266565b9250817fffffffffffffffffffffffffffffffffffffffffffffffffffffffffffffffff048311821515161562001352576200135162001270565b5b828202905092915050565b60006200136a8262001266565b91507fffffffffffffffffffffffffffffffffffffffffffffffffffffffffffffffff821415620013a0576200139f62001270565b5b600182019050919050565b7f4552433732313a207472616e7366657220746f206e6f6e20455243373231526560008201527f63656976657220696d706c656d656e7465720000000000000000000000000000602082015250565b600062001409603283620011e3565b91506200141682620013ab565b604082019050919050565b600060208201905081810360008301526200143c81620013fa565b9050919050565b7f4552433732313a206d696e7420746f20746865207a65726f2061646472657373600082015250565b60006200147b602083620011e3565b9150620014888262001443565b602082019050919050565b60006020820190508181036000830152620014ae816200146c565b9050919050565b7f4552433732313a20746f6b656e20616c7265616479206d696e74656400000000600082015250565b6000620014ed601c83620011e3565b9150620014fa82620014b5565b602082019050919050565b600060208201905081810360008301526200152081620014de565b9050919050565b6200153281620010cf565b82525050565b620015438162001266565b82525050565b600081519050919050565b600082825260208201905092915050565b6000620015728262001549565b6200157e818562001554565b93506200159081856020860162000ffb565b6200159b8162000f30565b840191505092915050565b6000608082019050620015bd600083018762001527565b620015cc602083018662001527565b620015db604083018562001538565b8181036060830152620015ef818462001565565b905095945050505050565b60007fffffffff0000000000000000000000000000000000000000000000000000000082169050919050565b6200163181620015fa565b81146200163d57600080fd5b50565b600081519050620016518162001626565b92915050565b60006020828403121562001670576200166f62000f1c565b5b6000620016808482850162001640565b91505092915050565b6000620016968262001266565b9150620016a38362001266565b925082821015620016b957620016b862001270565b5b828203905092915050565b7f4e487b7100000000000000000000000000000000000000000000000000000000600052603260045260246000fd5b7f4e487b7100000000000000000000000000000000000000000000000000000000600052603160045260246000fd5b7f4552433732313a2062616c616e636520717565727920666f7220746865207a6560008201527f726f206164647265737300000000000000000000000000000000000000000000602082015250565b600062001780602a83620011e3565b91506200178d8262001722565b604082019050919050565b60006020820190508181036000830152620017b38162001771565b9050919050565b7f4e487b7100000000000000000000000000000000000000000000000000000000600052602260045260246000fd5b600060028204905060018216806200180257607f821691505b60208210811415620018195762001818620017ba565b5b50919050565b61516f806200182f6000396000f3fe6080604052600436106102675760003560e01c80636352211e11610144578063aface8cd116100b6578063d936547e1161007a578063d936547e14610902578063da3ef23f1461093f578063e928c85714610968578063e985e9c514610993578063f24a78f7146109d0578063f2fde38b146109ec57610267565b8063aface8cd1461081d578063b88d4fde14610846578063c66828621461086f578063c87b56dd1461089a578063d5abeb01146108d757610267565b80637f00c7a6116101085780637f00c7a614610721578063822b4ae21461074a5780638da5cb5b1461077357806395d89b411461079e578063a22cb465146107c9578063a6d23e10146107f257610267565b80636352211e1461063a5780636c0360eb1461067757806370a08231146106a2578063715018a6146106df57806378b7695d146106f657610267565b806329d2a4eb116101dd57806342842e0e116101a157806342842e0e1461051a578063438b6300146105435780634a4c560d146105805780634f6ccce7146105a957806355f804b3146105e65780635c975abb1461060f57610267565b806329d2a4eb146104545780632f745c591461047f57806330cc7ae0146104bc5780633b2d04c9146104e55780633ccfd60b1461051057610267565b80631293092e1161022f5780631293092e14610363578063156e29f61461038e57806318160ddd146103aa578063239c70ae146103d557806323b872dd1461040057806326a8dc331461042957610267565b806301ffc9a71461026c57806302329a29146102a957806306fdde03146102d2578063081812fc146102fd578063095ea7b31461033a575b600080fd5b34801561027857600080fd5b50610293600480360381019061028e9190613797565b610a15565b6040516102a091906137df565b60405180910390f35b3480156102b557600080fd5b506102d060048036038101906102cb9190613826565b610a8f565b005b3480156102de57600080fd5b506102e7610b28565b6040516102f491906138ec565b60405180910390f35b34801561030957600080fd5b50610324600480360381019061031f9190613944565b610bba565b60405161033191906139b2565b60405180910390f35b34801561034657600080fd5b50610361600480360381019061035c91906139f9565b610c3f565b005b34801561036f57600080fd5b50610378610d57565b6040516103859190613a48565b60405180910390f35b6103a860048036038101906103a39190613a63565b610d5d565b005b3480156103b657600080fd5b506103bf610e87565b6040516103cc9190613a48565b60405180910390f35b3480156103e157600080fd5b506103ea610e94565b6040516103f79190613a48565b60405180910390f35b34801561040c57600080fd5b5061042760048036038101906104229190613ab6565b610e9a565b005b34801561043557600080fd5b5061043e610efa565b60405161044b9190613a48565b60405180910390f35b34801561046057600080fd5b50610469610f04565b6040516104769190613a48565b60405180910390f35b34801561048b57600080fd5b506104a660048036038101906104a191906139f9565b610f0e565b6040516104b39190613a48565b60405180910390f35b3480156104c857600080fd5b506104e360048036038101906104de9190613b09565b610fb3565b005b3480156104f157600080fd5b506104fa61108a565b6040516105079190613a48565b60405180910390f35b610518611090565b005b34801561052657600080fd5b50610541600480360381019061053c9190613ab6565b6111a7565b005b34801561054f57600080fd5b5061056a60048036038101906105659190613b09565b6111c7565b6040516105779190613bf4565b60405180910390f35b34801561058c57600080fd5b506105a760048036038101906105a29190613b09565b611275565b005b3480156105b557600080fd5b506105d060048036038101906105cb9190613944565b61134c565b6040516105dd9190613a48565b60405180910390f35b3480156105f257600080fd5b5061060d60048036038101906106089190613d4b565b6113bd565b005b34801561061b57600080fd5b50610624611453565b60405161063191906137df565b60405180910390f35b34801561064657600080fd5b50610661600480360381019061065c9190613944565b611466565b60405161066e91906139b2565b60405180910390f35b34801561068357600080fd5b5061068c611518565b60405161069991906138ec565b60405180910390f35b3480156106ae57600080fd5b506106c960048036038101906106c49190613b09565b6115a6565b6040516106d69190613a48565b60405180910390f35b3480156106eb57600080fd5b506106f461165e565b005b34801561070257600080fd5b5061070b6116e6565b6040516107189190613f19565b60405180910390f35b34801561072d57600080fd5b5061074860048036038101906107439190613944565b6118c9565b005b34801561075657600080fd5b50610771600480360381019061076c9190613944565b61194f565b005b34801561077f57600080fd5b506107886119d5565b60405161079591906139b2565b60405180910390f35b3480156107aa57600080fd5b506107b36119ff565b6040516107c091906138ec565b60405180910390f35b3480156107d557600080fd5b506107f060048036038101906107eb9190613f3b565b611a91565b005b3480156107fe57600080fd5b50610807611aa7565b6040516108149190613f9c565b60405180910390f35b34801561082957600080fd5b50610844600480360381019061083f9190613944565b611acd565b005b34801561085257600080fd5b5061086d60048036038101906108689190614058565b611b53565b005b34801561087b57600080fd5b50610884611bb5565b60405161089191906138ec565b60405180910390f35b3480156108a657600080fd5b506108c160048036038101906108bc9190613944565b611c43565b6040516108ce91906138ec565b60405180910390f35b3480156108e357600080fd5b506108ec611ced565b6040516108f99190613a48565b60405180910390f35b34801561090e57600080fd5b5061092960048036038101906109249190613b09565b611cf3565b60405161093691906137df565b60405180910390f35b34801561094b57600080fd5b5061096660048036038101906109619190613d4b565b611d13565b005b34801561097457600080fd5b5061097d611da9565b60405161098a9190613f19565b60405180910390f35b34801561099f57600080fd5b506109ba60048036038101906109b591906140db565b611f8c565b6040516109c791906137df565b60405180910390f35b6109ea60048036038101906109e59190614140565b612020565b005b3480156109f857600080fd5b50610a136004803603810190610a0e9190613b09565b61235a565b005b60007f780e9d63000000000000000000000000000000000000000000000000000000007bffffffffffffffffffffffffffffffffffffffffffffffffffffffff1916827bffffffffffffffffffffffffffffffffffffffffffffffffffffffff19161480610a885750610a878261246a565b5b9050919050565b610a9761254c565b73ffffffffffffffffffffffffffffffffffffffff16610ab56119d5565b73ffffffffffffffffffffffffffffffffffffffff1614610b0b576040517f08c379a0000000000000000000000000000000000000000000000000000000008152600401610b029061422b565b60405180910390fd5b80601160006101000a81548160ff02191690831515021790555050565b606060008054610b379061427a565b80601f0160208091040260200160405190810160405280929190818152602001828054610b639061427a565b8015610bb05780601f10610b8557610100808354040283529160200191610bb0565b820191906000526020600020905b815481529060010190602001808311610b9357829003601f168201915b5050505050905090565b6000610bc582612554565b610c04576040517f08c379a0000000000000000000000000000000000000000000000000000000008152600401610bfb9061431e565b60405180910390fd5b6004600083815260200190815260200160002060009054906101000a900473ffffffffffffffffffffffffffffffffffffffff169050919050565b6000610c4a82611466565b90508073ffffffffffffffffffffffffffffffffffffffff168373ffffffffffffffffffffffffffffffffffffffff161415610cbb576040517f08c379a0000000000000000000000000000000000000000000000000000000008152600401610cb2906143b0565b60405180910390fd5b8073ffffffffffffffffffffffffffffffffffffffff16610cda61254c565b73ffffffffffffffffffffffffffffffffffffffff161480610d095750610d0881610d0361254c565b611f8c565b5b610d48576040517f08c379a0000000000000000000000000000000000000000000000000000000008152600401610d3f90614442565b60405180910390fd5b610d5283836125c0565b505050565b600d5481565b6000610d67610e87565b9050601160009054906101000a900460ff1615610d8357600080fd5b600f54600182610d939190614491565b1115610d9e57600080fd5b610da66119d5565b73ffffffffffffffffffffffffffffffffffffffff163373ffffffffffffffffffffffffffffffffffffffff1614610e4a5760011515601260003373ffffffffffffffffffffffffffffffffffffffff1673ffffffffffffffffffffffffffffffffffffffff16815260200190815260200160002060009054906101000a900460ff16151514610e49578282610e3c91906144e7565b341015610e4857600080fd5b5b5b6000600190505b838111610e8057610e6d858284610e689190614491565b612679565b8080610e7890614541565b915050610e51565b5050505050565b6000600880549050905090565b60105481565b610eab610ea561254c565b82612697565b610eea576040517f08c379a0000000000000000000000000000000000000000000000000000000008152600401610ee1906145fc565b60405180910390fd5b610ef5838383612775565b505050565b6000601554905090565b6000601454905090565b6000610f19836115a6565b8210610f5a576040517f08c379a0000000000000000000000000000000000000000000000000000000008152600401610f519061468e565b60405180910390fd5b600660008473ffffffffffffffffffffffffffffffffffffffff1673ffffffffffffffffffffffffffffffffffffffff168152602001908152602001600020600083815260200190815260200160002054905092915050565b610fbb61254c565b73ffffffffffffffffffffffffffffffffffffffff16610fd96119d5565b73ffffffffffffffffffffffffffffffffffffffff161461102f576040517f08c379a00000000000000000000000000000000000000000000000000000000081526004016110269061422b565b60405180910390fd5b6000601260008373ffffffffffffffffffffffffffffffffffffffff1673ffffffffffffffffffffffffffffffffffffffff16815260200190815260200160002060006101000a81548160ff02191690831515021790555050565b600e5481565b61109861254c565b73ffffffffffffffffffffffffffffffffffffffff166110b66119d5565b73ffffffffffffffffffffffffffffffffffffffff161461110c576040517f08c379a00000000000000000000000000000000000000000000000000000000081526004016111039061422b565b60405180910390fd5b6000601360009054906101000a900473ffffffffffffffffffffffffffffffffffffffff1673ffffffffffffffffffffffffffffffffffffffff1647604051611154906146df565b60006040518083038185875af1925050503d8060008114611191576040519150601f19603f3d011682016040523d82523d6000602084013e611196565b606091505b50509050806111a457600080fd5b50565b6111c283838360405180602001604052806000815250611b53565b505050565b606060006111d4836115a6565b905060008167ffffffffffffffff8111156111f2576111f1613c20565b5b6040519080825280602002602001820160405280156112205781602001602082028036833780820191505090505b50905060005b8281101561126a576112388582610f0e565b82828151811061124b5761124a6146f4565b5b602002602001018181525050808061126290614541565b915050611226565b508092505050919050565b61127d61254c565b73ffffffffffffffffffffffffffffffffffffffff1661129b6119d5565b73ffffffffffffffffffffffffffffffffffffffff16146112f1576040517f08c379a00000000000000000000000000000000000000000000000000000000081526004016112e89061422b565b60405180910390fd5b6001601260008373ffffffffffffffffffffffffffffffffffffffff1673ffffffffffffffffffffffffffffffffffffffff16815260200190815260200160002060006101000a81548160ff02191690831515021790555050565b6000611356610e87565b8210611397576040517f08c379a000000000000000000000000000000000000000000000000000000000815260040161138e90614795565b60405180910390fd5b600882815481106113ab576113aa6146f4565b5b90600052602060002001549050919050565b6113c561254c565b73ffffffffffffffffffffffffffffffffffffffff166113e36119d5565b73ffffffffffffffffffffffffffffffffffffffff1614611439576040517f08c379a00000000000000000000000000000000000000000000000000000000081526004016114309061422b565b60405180910390fd5b80600b908051906020019061144f929190613688565b5050565b601160009054906101000a900460ff1681565b6000806002600084815260200190815260200160002060009054906101000a900473ffffffffffffffffffffffffffffffffffffffff169050600073ffffffffffffffffffffffffffffffffffffffff168173ffffffffffffffffffffffffffffffffffffffff16141561150f576040517f08c379a000000000000000000000000000000000000000000000000000000000815260040161150690614827565b60405180910390fd5b80915050919050565b600b80546115259061427a565b80601f01602080910402602001604051908101604052809291908181526020018280546115519061427a565b801561159e5780601f106115735761010080835404028352916020019161159e565b820191906000526020600020905b81548152906001019060200180831161158157829003601f168201915b505050505081565b60008073ffffffffffffffffffffffffffffffffffffffff168273ffffffffffffffffffffffffffffffffffffffff161415611617576040517f08c379a000000000000000000000000000000000000000000000000000000000815260040161160e906148b9565b60405180910390fd5b600360008373ffffffffffffffffffffffffffffffffffffffff1673ffffffffffffffffffffffffffffffffffffffff168152602001908152602001600020549050919050565b61166661254c565b73ffffffffffffffffffffffffffffffffffffffff166116846119d5565b73ffffffffffffffffffffffffffffffffffffffff16146116da576040517f08c379a00000000000000000000000000000000000000000000000000000000081526004016116d19061422b565b60405180910390fd5b6116e460006129d1565b565b60606016805480602002602001604051908101604052809291908181526020016000905b828210156118c057838290600052602060002090600402016040518060800160405290816000820160009054906101000a900473ffffffffffffffffffffffffffffffffffffffff1673ffffffffffffffffffffffffffffffffffffffff1673ffffffffffffffffffffffffffffffffffffffff1681526020016001820180546117939061427a565b80601f01602080910402602001604051908101604052809291908181526020018280546117bf9061427a565b801561180c5780601f106117e15761010080835404028352916020019161180c565b820191906000526020600020905b8154815290600101906020018083116117ef57829003601f168201915b505050505081526020016002820180546118259061427a565b80601f01602080910402602001604051908101604052809291908181526020018280546118519061427a565b801561189e5780601f106118735761010080835404028352916020019161189e565b820191906000526020600020905b81548152906001019060200180831161188157829003601f168201915b505050505081526020016003820154815250508152602001906001019061170a565b50505050905090565b6118d161254c565b73ffffffffffffffffffffffffffffffffffffffff166118ef6119d5565b73ffffffffffffffffffffffffffffffffffffffff1614611945576040517f08c379a000000000000000000000000000000000000000000000000000000000815260040161193c9061422b565b60405180910390fd5b8060108190555050565b61195761254c565b73ffffffffffffffffffffffffffffffffffffffff166119756119d5565b73ffffffffffffffffffffffffffffffffffffffff16146119cb576040517f08c379a00000000000000000000000000000000000000000000000000000000081526004016119c29061422b565b60405180910390fd5b80600e8190555050565b6000600a60009054906101000a900473ffffffffffffffffffffffffffffffffffffffff16905090565b606060018054611a0e9061427a565b80601f0160208091040260200160405190810160405280929190818152602001828054611a3a9061427a565b8015611a875780601f10611a5c57610100808354040283529160200191611a87565b820191906000526020600020905b815481529060010190602001808311611a6a57829003601f168201915b5050505050905090565b611aa3611a9c61254c565b8383612a97565b5050565b601360009054906101000a900473ffffffffffffffffffffffffffffffffffffffff1681565b611ad561254c565b73ffffffffffffffffffffffffffffffffffffffff16611af36119d5565b73ffffffffffffffffffffffffffffffffffffffff1614611b49576040517f08c379a0000000000000000000000000000000000000000000000000000000008152600401611b409061422b565b60405180910390fd5b80600d8190555050565b611b64611b5e61254c565b83612697565b611ba3576040517f08c379a0000000000000000000000000000000000000000000000000000000008152600401611b9a906145fc565b60405180910390fd5b611baf84848484612c04565b50505050565b600c8054611bc29061427a565b80601f0160208091040260200160405190810160405280929190818152602001828054611bee9061427a565b8015611c3b5780601f10611c1057610100808354040283529160200191611c3b565b820191906000526020600020905b815481529060010190602001808311611c1e57829003601f168201915b505050505081565b6060611c4e82612554565b611c8d576040517f08c379a0000000000000000000000000000000000000000000000000000000008152600401611c849061494b565b60405180910390fd5b6000611c97612c60565b90506000815111611cb75760405180602001604052806000815250611ce5565b80611cc184612cf2565b600c604051602001611cd593929190614a3b565b6040516020818303038152906040525b915050919050565b600f5481565b60126020528060005260406000206000915054906101000a900460ff1681565b611d1b61254c565b73ffffffffffffffffffffffffffffffffffffffff16611d396119d5565b73ffffffffffffffffffffffffffffffffffffffff1614611d8f576040517f08c379a0000000000000000000000000000000000000000000000000000000008152600401611d869061422b565b60405180910390fd5b80600c9080519060200190611da5929190613688565b5050565b60606017805480602002602001604051908101604052809291908181526020016000905b82821015611f8357838290600052602060002090600402016040518060800160405290816000820160009054906101000a900473ffffffffffffffffffffffffffffffffffffffff1673ffffffffffffffffffffffffffffffffffffffff1673ffffffffffffffffffffffffffffffffffffffff168152602001600182018054611e569061427a565b80601f0160208091040260200160405190810160405280929190818152602001828054611e829061427a565b8015611ecf5780601f10611ea457610100808354040283529160200191611ecf565b820191906000526020600020905b815481529060010190602001808311611eb257829003601f168201915b50505050508152602001600282018054611ee89061427a565b80601f0160208091040260200160405190810160405280929190818152602001828054611f149061427a565b8015611f615780601f10611f3657610100808354040283529160200191611f61565b820191906000526020600020905b815481529060010190602001808311611f4457829003601f168201915b5050505050815260200160038201548152505081526020019060010190611dcd565b50505050905090565b6000600560008473ffffffffffffffffffffffffffffffffffffffff1673ffffffffffffffffffffffffffffffffffffffff16815260200190815260200160002060008373ffffffffffffffffffffffffffffffffffffffff1673ffffffffffffffffffffffffffffffffffffffff16815260200190815260200160002060009054906101000a900460ff16905092915050565b6000600181111561203457612033614a6c565b5b81600181111561204757612046614a6c565b5b14156121b35761207d601360009054906101000a900473ffffffffffffffffffffffffffffffffffffffff166001600d54610d5d565b6014600081548092919061209090614541565b9190505550601660405180608001604052808673ffffffffffffffffffffffffffffffffffffffff16815260200185815260200184815260200142815250908060018154018082558091505060019003906000526020600020906004020160009091909190915060008201518160000160006101000a81548173ffffffffffffffffffffffffffffffffffffffff021916908373ffffffffffffffffffffffffffffffffffffffff160217905550602082015181600101908051906020019061215a929190613688565b506040820151816002019080519060200190612177929190613688565b50606082015181600301555050600a60145411156121ae5761219d336005600d54610d5d565b60006014819055506121ad611090565b5b612315565b6121e3601360009054906101000a900473ffffffffffffffffffffffffffffffffffffffff166001600e54610d5d565b601560008154809291906121f690614541565b9190505550601660405180608001604052808673ffffffffffffffffffffffffffffffffffffffff16815260200185815260200184815260200142815250908060018154018082558091505060019003906000526020600020906004020160009091909190915060008201518160000160006101000a81548173ffffffffffffffffffffffffffffffffffffffff021916908373ffffffffffffffffffffffffffffffffffffffff16021790555060208201518160010190805190602001906122c0929190613688565b5060408201518160020190805190602001906122dd929190613688565b50606082015181600301555050600a601554111561231457612303336005600e54610d5d565b6000601581905550612313611090565b5b5b7fb6d830123d1366d42c249ae8886792141a1ab79f962f7a1d1036482a31f809b3338285854260405161234c959493929190614ae3565b60405180910390a150505050565b61236261254c565b73ffffffffffffffffffffffffffffffffffffffff166123806119d5565b73ffffffffffffffffffffffffffffffffffffffff16146123d6576040517f08c379a00000000000000000000000000000000000000000000000000000000081526004016123cd9061422b565b60405180910390fd5b600073ffffffffffffffffffffffffffffffffffffffff168173ffffffffffffffffffffffffffffffffffffffff161415612446576040517f08c379a000000000000000000000000000000000000000000000000000000000815260040161243d90614bb6565b60405180910390fd5b61244f816129d1565b50565b600080823b905060008111915050919050565b505050565b60007f80ac58cd000000000000000000000000000000000000000000000000000000007bffffffffffffffffffffffffffffffffffffffffffffffffffffffff1916827bffffffffffffffffffffffffffffffffffffffffffffffffffffffff1916148061253557507f5b5e139f000000000000000000000000000000000000000000000000000000007bffffffffffffffffffffffffffffffffffffffffffffffffffffffff1916827bffffffffffffffffffffffffffffffffffffffffffffffffffffffff1916145b80612545575061254482612e53565b5b9050919050565b600033905090565b60008073ffffffffffffffffffffffffffffffffffffffff166002600084815260200190815260200160002060009054906101000a900473ffffffffffffffffffffffffffffffffffffffff1673ffffffffffffffffffffffffffffffffffffffff1614159050919050565b816004600083815260200190815260200160002060006101000a81548173ffffffffffffffffffffffffffffffffffffffff021916908373ffffffffffffffffffffffffffffffffffffffff160217905550808273ffffffffffffffffffffffffffffffffffffffff1661263383611466565b73ffffffffffffffffffffffffffffffffffffffff167f8c5be1e5ebec7d5bd14f71427d1e84f3dd0314c0f7b2291e5b200ac8c7c3b92560405160405180910390a45050565b612693828260405180602001604052806000815250612ebd565b5050565b60006126a282612554565b6126e1576040517f08c379a00000000000000000000000000000000000000000000000000000000081526004016126d890614c48565b60405180910390fd5b60006126ec83611466565b90508073ffffffffffffffffffffffffffffffffffffffff168473ffffffffffffffffffffffffffffffffffffffff16148061275b57508373ffffffffffffffffffffffffffffffffffffffff1661274384610bba565b73ffffffffffffffffffffffffffffffffffffffff16145b8061276c575061276b8185611f8c565b5b91505092915050565b8273ffffffffffffffffffffffffffffffffffffffff1661279582611466565b73ffffffffffffffffffffffffffffffffffffffff16146127eb576040517f08c379a00000000000000000000000000000000000000000000000000000000081526004016127e290614cda565b60405180910390fd5b600073ffffffffffffffffffffffffffffffffffffffff168273ffffffffffffffffffffffffffffffffffffffff16141561285b576040517f08c379a000000000000000000000000000000000000000000000000000000000815260040161285290614d6c565b60405180910390fd5b612866838383612f18565b6128716000826125c0565b6001600360008573ffffffffffffffffffffffffffffffffffffffff1673ffffffffffffffffffffffffffffffffffffffff16815260200190815260200160002060008282546128c19190614d8c565b925050819055506001600360008473ffffffffffffffffffffffffffffffffffffffff1673ffffffffffffffffffffffffffffffffffffffff16815260200190815260200160002060008282546129189190614491565b92505081905550816002600083815260200190815260200160002060006101000a81548173ffffffffffffffffffffffffffffffffffffffff021916908373ffffffffffffffffffffffffffffffffffffffff160217905550808273ffffffffffffffffffffffffffffffffffffffff168473ffffffffffffffffffffffffffffffffffffffff167fddf252ad1be2c89b69c2b068fc378daa952ba7f163c4a11628f55a4df523b3ef60405160405180910390a4505050565b6000600a60009054906101000a900473ffffffffffffffffffffffffffffffffffffffff16905081600a60006101000a81548173ffffffffffffffffffffffffffffffffffffffff021916908373ffffffffffffffffffffffffffffffffffffffff1602179055508173ffffffffffffffffffffffffffffffffffffffff168173ffffffffffffffffffffffffffffffffffffffff167f8be0079c531659141344cd1fd0a4f28419497f9722a3daafe3b4186f6b6457e060405160405180910390a35050565b8173ffffffffffffffffffffffffffffffffffffffff168373ffffffffffffffffffffffffffffffffffffffff161415612b06576040517f08c379a0000000000000000000000000000000000000000000000000000000008152600401612afd90614e0c565b60405180910390fd5b80600560008573ffffffffffffffffffffffffffffffffffffffff1673ffffffffffffffffffffffffffffffffffffffff16815260200190815260200160002060008473ffffffffffffffffffffffffffffffffffffffff1673ffffffffffffffffffffffffffffffffffffffff16815260200190815260200160002060006101000a81548160ff0219169083151502179055508173ffffffffffffffffffffffffffffffffffffffff168373ffffffffffffffffffffffffffffffffffffffff167f17307eab39ab6107e8899845ad3d59bd9653f200f220920489ca2b5937696c3183604051612bf791906137df565b60405180910390a3505050565b612c0f848484612775565b612c1b8484848461302c565b612c5a576040517f08c379a0000000000000000000000000000000000000000000000000000000008152600401612c5190614e9e565b60405180910390fd5b50505050565b6060600b8054612c6f9061427a565b80601f0160208091040260200160405190810160405280929190818152602001828054612c9b9061427a565b8015612ce85780601f10612cbd57610100808354040283529160200191612ce8565b820191906000526020600020905b815481529060010190602001808311612ccb57829003601f168201915b5050505050905090565b60606000821415612d3a576040518060400160405280600181526020017f30000000000000000000000000000000000000000000000000000000000000008152509050612e4e565b600082905060005b60008214612d6c578080612d5590614541565b915050600a82612d659190614eed565b9150612d42565b60008167ffffffffffffffff811115612d8857612d87613c20565b5b6040519080825280601f01601f191660200182016040528015612dba5781602001600182028036833780820191505090505b5090505b60008514612e4757600182612dd39190614d8c565b9150600a85612de29190614f1e565b6030612dee9190614491565b60f81b818381518110612e0457612e036146f4565b5b60200101907effffffffffffffffffffffffffffffffffffffffffffffffffffffffffffff1916908160001a905350600a85612e409190614eed565b9450612dbe565b8093505050505b919050565b60007f01ffc9a7000000000000000000000000000000000000000000000000000000007bffffffffffffffffffffffffffffffffffffffffffffffffffffffff1916827bffffffffffffffffffffffffffffffffffffffffffffffffffffffff1916149050919050565b612ec783836131b4565b612ed4600084848461302c565b612f13576040517f08c379a0000000000000000000000000000000000000000000000000000000008152600401612f0a90614e9e565b60405180910390fd5b505050565b612f23838383612465565b600073ffffffffffffffffffffffffffffffffffffffff168373ffffffffffffffffffffffffffffffffffffffff161415612f6657612f6181613382565b612fa5565b8173ffffffffffffffffffffffffffffffffffffffff168373ffffffffffffffffffffffffffffffffffffffff1614612fa457612fa383826133cb565b5b5b600073ffffffffffffffffffffffffffffffffffffffff168273ffffffffffffffffffffffffffffffffffffffff161415612fe857612fe381613538565b613027565b8273ffffffffffffffffffffffffffffffffffffffff168273ffffffffffffffffffffffffffffffffffffffff1614613026576130258282613609565b5b5b505050565b600061304d8473ffffffffffffffffffffffffffffffffffffffff16612452565b156131a7578373ffffffffffffffffffffffffffffffffffffffff1663150b7a0261307661254c565b8786866040518563ffffffff1660e01b81526004016130989493929190614fa4565b6020604051808303816000875af19250505080156130d457506040513d601f19601f820116820180604052508101906130d19190615005565b60015b613157573d8060008114613104576040519150601f19603f3d011682016040523d82523d6000602084013e613109565b606091505b5060008151141561314f576040517f08c379a000000000000000000000000000000000000000000000000000000000815260040161314690614e9e565b60405180910390fd5b805181602001fd5b63150b7a0260e01b7bffffffffffffffffffffffffffffffffffffffffffffffffffffffff1916817bffffffffffffffffffffffffffffffffffffffffffffffffffffffff1916149150506131ac565b600190505b949350505050565b600073ffffffffffffffffffffffffffffffffffffffff168273ffffffffffffffffffffffffffffffffffffffff161415613224576040517f08c379a000000000000000000000000000000000000000000000000000000000815260040161321b9061507e565b60405180910390fd5b61322d81612554565b1561326d576040517f08c379a0000000000000000000000000000000000000000000000000000000008152600401613264906150ea565b60405180910390fd5b61327960008383612f18565b6001600360008473ffffffffffffffffffffffffffffffffffffffff1673ffffffffffffffffffffffffffffffffffffffff16815260200190815260200160002060008282546132c99190614491565b92505081905550816002600083815260200190815260200160002060006101000a81548173ffffffffffffffffffffffffffffffffffffffff021916908373ffffffffffffffffffffffffffffffffffffffff160217905550808273ffffffffffffffffffffffffffffffffffffffff16600073ffffffffffffffffffffffffffffffffffffffff167fddf252ad1be2c89b69c2b068fc378daa952ba7f163c4a11628f55a4df523b3ef60405160405180910390a45050565b6008805490506009600083815260200190815260200160002081905550600881908060018154018082558091505060019003906000526020600020016000909190919091505550565b600060016133d8846115a6565b6133e29190614d8c565b90506000600760008481526020019081526020016000205490508181146134c7576000600660008673ffffffffffffffffffffffffffffffffffffffff1673ffffffffffffffffffffffffffffffffffffffff168152602001908152602001600020600084815260200190815260200160002054905080600660008773ffffffffffffffffffffffffffffffffffffffff1673ffffffffffffffffffffffffffffffffffffffff168152602001908152602001600020600084815260200190815260200160002081905550816007600083815260200190815260200160002081905550505b6007600084815260200190815260200160002060009055600660008573ffffffffffffffffffffffffffffffffffffffff1673ffffffffffffffffffffffffffffffffffffffff16815260200190815260200160002060008381526020019081526020016000206000905550505050565b6000600160088054905061354c9190614d8c565b905060006009600084815260200190815260200160002054905060006008838154811061357c5761357b6146f4565b5b90600052602060002001549050806008838154811061359e5761359d6146f4565b5b9060005260206000200181905550816009600083815260200190815260200160002081905550600960008581526020019081526020016000206000905560088054806135ed576135ec61510a565b5b6001900381819060005260206000200160009055905550505050565b6000613614836115a6565b905081600660008573ffffffffffffffffffffffffffffffffffffffff1673ffffffffffffffffffffffffffffffffffffffff168152602001908152602001600020600083815260200190815260200160002081905550806007600084815260200190815260200160002081905550505050565b8280546136949061427a565b90600052602060002090601f0160209004810192826136b657600085556136fd565b82601f106136cf57805160ff19168380011785556136fd565b828001600101855582156136fd579182015b828111156136fc5782518255916020019190600101906136e1565b5b50905061370a919061370e565b5090565b5b8082111561372757600081600090555060010161370f565b5090565b6000604051905090565b600080fd5b600080fd5b60007fffffffff0000000000000000000000000000000000000000000000000000000082169050919050565b6137748161373f565b811461377f57600080fd5b50565b6000813590506137918161376b565b92915050565b6000602082840312156137ad576137ac613735565b5b60006137bb84828501613782565b91505092915050565b60008115159050919050565b6137d9816137c4565b82525050565b60006020820190506137f460008301846137d0565b92915050565b613803816137c4565b811461380e57600080fd5b50565b600081359050613820816137fa565b92915050565b60006020828403121561383c5761383b613735565b5b600061384a84828501613811565b91505092915050565b600081519050919050565b600082825260208201905092915050565b60005b8381101561388d578082015181840152602081019050613872565b8381111561389c576000848401525b50505050565b6000601f19601f8301169050919050565b60006138be82613853565b6138c8818561385e565b93506138d881856020860161386f565b6138e1816138a2565b840191505092915050565b6000602082019050818103600083015261390681846138b3565b905092915050565b6000819050919050565b6139218161390e565b811461392c57600080fd5b50565b60008135905061393e81613918565b92915050565b60006020828403121561395a57613959613735565b5b60006139688482850161392f565b91505092915050565b600073ffffffffffffffffffffffffffffffffffffffff82169050919050565b600061399c82613971565b9050919050565b6139ac81613991565b82525050565b60006020820190506139c760008301846139a3565b92915050565b6139d681613991565b81146139e157600080fd5b50565b6000813590506139f3816139cd565b92915050565b60008060408385031215613a1057613a0f613735565b5b6000613a1e858286016139e4565b9250506020613a2f8582860161392f565b9150509250929050565b613a428161390e565b82525050565b6000602082019050613a5d6000830184613a39565b92915050565b600080600060608486031215613a7c57613a7b613735565b5b6000613a8a868287016139e4565b9350506020613a9b8682870161392f565b9250506040613aac8682870161392f565b9150509250925092565b600080600060608486031215613acf57613ace613735565b5b6000613add868287016139e4565b9350506020613aee868287016139e4565b9250506040613aff8682870161392f565b9150509250925092565b600060208284031215613b1f57613b1e613735565b5b6000613b2d848285016139e4565b91505092915050565b600081519050919050565b600082825260208201905092915050565b6000819050602082019050919050565b613b6b8161390e565b82525050565b6000613b7d8383613b62565b60208301905092915050565b6000602082019050919050565b6000613ba182613b36565b613bab8185613b41565b9350613bb683613b52565b8060005b83811015613be7578151613bce8882613b71565b9750613bd983613b89565b925050600181019050613bba565b5085935050505092915050565b60006020820190508181036000830152613c0e8184613b96565b905092915050565b600080fd5b600080fd5b7f4e487b7100000000000000000000000000000000000000000000000000000000600052604160045260246000fd5b613c58826138a2565b810181811067ffffffffffffffff82111715613c7757613c76613c20565b5b80604052505050565b6000613c8a61372b565b9050613c968282613c4f565b919050565b600067ffffffffffffffff821115613cb657613cb5613c20565b5b613cbf826138a2565b9050602081019050919050565b82818337600083830152505050565b6000613cee613ce984613c9b565b613c80565b905082815260208101848484011115613d0a57613d09613c1b565b5b613d15848285613ccc565b509392505050565b600082601f830112613d3257613d31613c16565b5b8135613d42848260208601613cdb565b91505092915050565b600060208284031215613d6157613d60613735565b5b600082013567ffffffffffffffff811115613d7f57613d7e61373a565b5b613d8b84828501613d1d565b91505092915050565b600081519050919050565b600082825260208201905092915050565b6000819050602082019050919050565b613dc981613991565b82525050565b600082825260208201905092915050565b6000613deb82613853565b613df58185613dcf565b9350613e0581856020860161386f565b613e0e816138a2565b840191505092915050565b6000608083016000830151613e316000860182613dc0565b5060208301518482036020860152613e498282613de0565b91505060408301518482036040860152613e638282613de0565b9150506060830151613e786060860182613b62565b508091505092915050565b6000613e8f8383613e19565b905092915050565b6000602082019050919050565b6000613eaf82613d94565b613eb98185613d9f565b935083602082028501613ecb85613db0565b8060005b85811015613f075784840389528151613ee88582613e83565b9450613ef383613e97565b925060208a01995050600181019050613ecf565b50829750879550505050505092915050565b60006020820190508181036000830152613f338184613ea4565b905092915050565b60008060408385031215613f5257613f51613735565b5b6000613f60858286016139e4565b9250506020613f7185828601613811565b9150509250929050565b6000613f8682613971565b9050919050565b613f9681613f7b565b82525050565b6000602082019050613fb16000830184613f8d565b92915050565b600067ffffffffffffffff821115613fd257613fd1613c20565b5b613fdb826138a2565b9050602081019050919050565b6000613ffb613ff684613fb7565b613c80565b90508281526020810184848401111561401757614016613c1b565b5b614022848285613ccc565b509392505050565b600082601f83011261403f5761403e613c16565b5b813561404f848260208601613fe8565b91505092915050565b6000806000806080858703121561407257614071613735565b5b6000614080878288016139e4565b9450506020614091878288016139e4565b93505060406140a28782880161392f565b925050606085013567ffffffffffffffff8111156140c3576140c261373a565b5b6140cf8782880161402a565b91505092959194509250565b600080604083850312156140f2576140f1613735565b5b6000614100858286016139e4565b9250506020614111858286016139e4565b9150509250929050565b6002811061412857600080fd5b50565b60008135905061413a8161411b565b92915050565b6000806000806080858703121561415a57614159613735565b5b6000614168878288016139e4565b945050602085013567ffffffffffffffff8111156141895761418861373a565b5b61419587828801613d1d565b935050604085013567ffffffffffffffff8111156141b6576141b561373a565b5b6141c287828801613d1d565b92505060606141d38782880161412b565b91505092959194509250565b7f4f776e61626c653a2063616c6c6572206973206e6f7420746865206f776e6572600082015250565b600061421560208361385e565b9150614220826141df565b602082019050919050565b6000602082019050818103600083015261424481614208565b9050919050565b7f4e487b7100000000000000000000000000000000000000000000000000000000600052602260045260246000fd5b6000600282049050600182168061429257607f821691505b602082108114156142a6576142a561424b565b5b50919050565b7f4552433732313a20617070726f76656420717565727920666f72206e6f6e657860008201527f697374656e7420746f6b656e0000000000000000000000000000000000000000602082015250565b6000614308602c8361385e565b9150614313826142ac565b604082019050919050565b60006020820190508181036000830152614337816142fb565b9050919050565b7f4552433732313a20617070726f76616c20746f2063757272656e74206f776e6560008201527f7200000000000000000000000000000000000000000000000000000000000000602082015250565b600061439a60218361385e565b91506143a58261433e565b604082019050919050565b600060208201905081810360008301526143c98161438d565b9050919050565b7f4552433732313a20617070726f76652063616c6c6572206973206e6f74206f7760008201527f6e6572206e6f7220617070726f76656420666f7220616c6c0000000000000000602082015250565b600061442c60388361385e565b9150614437826143d0565b604082019050919050565b6000602082019050818103600083015261445b8161441f565b9050919050565b7f4e487b7100000000000000000000000000000000000000000000000000000000600052601160045260246000fd5b600061449c8261390e565b91506144a78361390e565b9250827fffffffffffffffffffffffffffffffffffffffffffffffffffffffffffffffff038211156144dc576144db614462565b5b828201905092915050565b60006144f28261390e565b91506144fd8361390e565b9250817fffffffffffffffffffffffffffffffffffffffffffffffffffffffffffffffff048311821515161561453657614535614462565b5b828202905092915050565b600061454c8261390e565b91507fffffffffffffffffffffffffffffffffffffffffffffffffffffffffffffffff82141561457f5761457e614462565b5b600182019050919050565b7f4552433732313a207472616e736665722063616c6c6572206973206e6f74206f60008201527f776e6572206e6f7220617070726f766564000000000000000000000000000000602082015250565b60006145e660318361385e565b91506145f18261458a565b604082019050919050565b60006020820190508181036000830152614615816145d9565b9050919050565b7f455243373231456e756d657261626c653a206f776e657220696e646578206f7560008201527f74206f6620626f756e6473000000000000000000000000000000000000000000602082015250565b6000614678602b8361385e565b91506146838261461c565b604082019050919050565b600060208201905081810360008301526146a78161466b565b9050919050565b600081905092915050565b50565b60006146c96000836146ae565b91506146d4826146b9565b600082019050919050565b60006146ea826146bc565b9150819050919050565b7f4e487b7100000000000000000000000000000000000000000000000000000000600052603260045260246000fd5b7f455243373231456e756d657261626c653a20676c6f62616c20696e646578206f60008201527f7574206f6620626f756e64730000000000000000000000000000000000000000602082015250565b600061477f602c8361385e565b915061478a82614723565b604082019050919050565b600060208201905081810360008301526147ae81614772565b9050919050565b7f4552433732313a206f776e657220717565727920666f72206e6f6e657869737460008201527f656e7420746f6b656e0000000000000000000000000000000000000000000000602082015250565b600061481160298361385e565b915061481c826147b5565b604082019050919050565b6000602082019050818103600083015261484081614804565b9050919050565b7f4552433732313a2062616c616e636520717565727920666f7220746865207a6560008201527f726f206164647265737300000000000000000000000000000000000000000000602082015250565b60006148a3602a8361385e565b91506148ae82614847565b604082019050919050565b600060208201905081810360008301526148d281614896565b9050919050565b7f4552433732314d657461646174613a2055524920717565727920666f72206e6f60008201527f6e6578697374656e7420746f6b656e0000000000000000000000000000000000602082015250565b6000614935602f8361385e565b9150614940826148d9565b604082019050919050565b6000602082019050818103600083015261496481614928565b9050919050565b600081905092915050565b600061498182613853565b61498b818561496b565b935061499b81856020860161386f565b80840191505092915050565b60008190508160005260206000209050919050565b600081546149c98161427a565b6149d3818661496b565b945060018216600081146149ee57600181146149ff57614a32565b60ff19831686528186019350614a32565b614a08856149a7565b60005b83811015614a2a57815481890152600182019150602081019050614a0b565b838801955050505b50505092915050565b6000614a478286614976565b9150614a538285614976565b9150614a5f82846149bc565b9150819050949350505050565b7f4e487b7100000000000000000000000000000000000000000000000000000000600052602160045260246000fd5b60028110614aac57614aab614a6c565b5b50565b6000819050614abd82614a9b565b919050565b6000614acd82614aaf565b9050919050565b614add81614ac2565b82525050565b600060a082019050614af860008301886139a3565b614b056020830187614ad4565b8181036040830152614b1781866138b3565b90508181036060830152614b2b81856138b3565b9050614b3a6080830184613a39565b9695505050505050565b7f4f776e61626c653a206e6577206f776e657220697320746865207a65726f206160008201527f6464726573730000000000000000000000000000000000000000000000000000602082015250565b6000614ba060268361385e565b9150614bab82614b44565b604082019050919050565b60006020820190508181036000830152614bcf81614b93565b9050919050565b7f4552433732313a206f70657261746f7220717565727920666f72206e6f6e657860008201527f697374656e7420746f6b656e0000000000000000000000000000000000000000602082015250565b6000614c32602c8361385e565b9150614c3d82614bd6565b604082019050919050565b60006020820190508181036000830152614c6181614c25565b9050919050565b7f4552433732313a207472616e73666572206f6620746f6b656e2074686174206960008201527f73206e6f74206f776e0000000000000000000000000000000000000000000000602082015250565b6000614cc460298361385e565b9150614ccf82614c68565b604082019050919050565b60006020820190508181036000830152614cf381614cb7565b9050919050565b7f4552433732313a207472616e7366657220746f20746865207a65726f2061646460008201527f7265737300000000000000000000000000000000000000000000000000000000602082015250565b6000614d5660248361385e565b9150614d6182614cfa565b604082019050919050565b60006020820190508181036000830152614d8581614d49565b9050919050565b6000614d978261390e565b9150614da28361390e565b925082821015614db557614db4614462565b5b828203905092915050565b7f4552433732313a20617070726f766520746f2063616c6c657200000000000000600082015250565b6000614df660198361385e565b9150614e0182614dc0565b602082019050919050565b60006020820190508181036000830152614e2581614de9565b9050919050565b7f4552433732313a207472616e7366657220746f206e6f6e20455243373231526560008201527f63656976657220696d706c656d656e7465720000000000000000000000000000602082015250565b6000614e8860328361385e565b9150614e9382614e2c565b604082019050919050565b60006020820190508181036000830152614eb781614e7b565b9050919050565b7f4e487b7100000000000000000000000000000000000000000000000000000000600052601260045260246000fd5b6000614ef88261390e565b9150614f038361390e565b925082614f1357614f12614ebe565b5b828204905092915050565b6000614f298261390e565b9150614f348361390e565b925082614f4457614f43614ebe565b5b828206905092915050565b600081519050919050565b600082825260208201905092915050565b6000614f7682614f4f565b614f808185614f5a565b9350614f9081856020860161386f565b614f99816138a2565b840191505092915050565b6000608082019050614fb960008301876139a3565b614fc660208301866139a3565b614fd36040830185613a39565b8181036060830152614fe58184614f6b565b905095945050505050565b600081519050614fff8161376b565b92915050565b60006020828403121561501b5761501a613735565b5b600061502984828501614ff0565b91505092915050565b7f4552433732313a206d696e7420746f20746865207a65726f2061646472657373600082015250565b600061506860208361385e565b915061507382615032565b602082019050919050565b600060208201905081810360008301526150978161505b565b9050919050565b7f4552433732313a20746f6b656e20616c7265616479206d696e74656400000000600082015250565b60006150d4601c8361385e565b91506150df8261509e565b602082019050919050565b60006020820190508181036000830152615103816150c7565b9050919050565b7f4e487b7100000000000000000000000000000000000000000000000000000000600052603160045260246000fdfea26469706673582212205c90c54027c80eb4a3e2bd52d2511318528c75e08728733e54b267122e7b99e164736f6c634300080b0033",
  "immutableReferences": {},
  "source": "// SPDX-License-Identifier: MIT\r\npragma solidity >=0.7.0;\r\n\r\nimport \"@openzeppelin/contracts/token/ERC721/extensions/ERC721Enumerable.sol\";\r\nimport \"@openzeppelin/contracts/access/Ownable.sol\";\r\n\r\ncontract Mucahid is ERC721Enumerable, Ownable {\r\n    using Strings for uint256;\r\n\r\n    string public baseURI;\r\n    string public baseExtension = \".json\";\r\n    uint256 public messageCost = 0.005 ether;\r\n    uint256 public boardMessageCost = 0.01 ether;\r\n    uint256 public maxSupply = 10000;\r\n    uint256 public maxMintAmount = 20;\r\n    bool public paused = false;\r\n    mapping(address => bool) public whitelisted;\r\n    address payable public payments;\r\n\r\n    constructor(\r\n        string memory _name,\r\n        string memory _symbol,\r\n        string memory _initBaseURI,\r\n        address _payments\r\n    ) ERC721(_name, _symbol) {\r\n        setBaseURI(_initBaseURI);\r\n        payments = payable(_payments);\r\n        mint(msg.sender, 10, messageCost);\r\n    }\r\n\r\n    // internal\r\n    function _baseURI() internal view virtual override returns (string memory) {\r\n        return baseURI;\r\n    }\r\n\r\n    // public\r\n    function mint(address _to, uint256 _mintAmount, uint256 cost) public payable {\r\n        uint256 supply = totalSupply();\r\n        require(!paused);\r\n        require(supply + 1 <= maxSupply);\r\n\r\n        if (msg.sender != owner()) {\r\n            if(whitelisted[msg.sender] != true) {\r\n                require(msg.value >= cost * _mintAmount);\r\n            }\r\n        }\r\n\r\n        for (uint256 i = 1; i <= _mintAmount; i++) {\r\n            _safeMint(_to, supply + i);\r\n        }\r\n    }\r\n\r\n    function walletOfOwner(address _owner)\r\n        public\r\n        view\r\n        returns (uint256[] memory)\r\n    {\r\n        uint256 ownerTokenCount = balanceOf(_owner);\r\n        uint256[] memory tokenIds = new uint256[](ownerTokenCount);\r\n        for (uint256 i; i < ownerTokenCount; i++) {\r\n            tokenIds[i] = tokenOfOwnerByIndex(_owner, i);\r\n        }\r\n        return tokenIds;\r\n    }\r\n\r\n    function tokenURI(uint256 tokenId)\r\n        public\r\n        view\r\n        virtual\r\n        override\r\n        returns (string memory)\r\n    {\r\n        require(\r\n        _exists(tokenId),\r\n        \"ERC721Metadata: URI query for nonexistent token\"\r\n        );\r\n\r\n        string memory currentBaseURI = _baseURI();\r\n        return bytes(currentBaseURI).length > 0\r\n            ? string(abi.encodePacked(currentBaseURI, tokenId.toString(), baseExtension))\r\n            : \"\";\r\n    }\r\n\r\n    //only owner\r\n    function setMessageCost(uint256 _newCost) public onlyOwner {\r\n        messageCost = _newCost;\r\n    }\r\n    function setBoardMessageCost(uint256 _newCost) public onlyOwner {\r\n        boardMessageCost = _newCost;\r\n    }\r\n\r\n    function setmaxMintAmount(uint256 _newmaxMintAmount) public onlyOwner {\r\n        maxMintAmount = _newmaxMintAmount;\r\n    }\r\n\r\n    function setBaseURI(string memory _newBaseURI) public onlyOwner {\r\n        baseURI = _newBaseURI;\r\n    }\r\n\r\n    function setBaseExtension(string memory _newBaseExtension) public onlyOwner {\r\n        baseExtension = _newBaseExtension;\r\n    }\r\n\r\n    function pause(bool _state) public onlyOwner {\r\n        paused = _state;\r\n    }\r\n    \r\n    function whitelistUser(address _user) public onlyOwner {\r\n        whitelisted[_user] = true;\r\n    }\r\n    \r\n    function removeWhitelistUser(address _user) public onlyOwner {\r\n        whitelisted[_user] = false;\r\n    }\r\n\r\n    function withdraw() public payable onlyOwner {\r\n        (bool success, ) = payable(payments).call{value: address(this).balance}(\"\");\r\n        require(success);\r\n    }\r\n    \r\n    uint256 messagesCount;\r\n    uint256 boardMessagesCount;\r\n\r\n    enum MessageType { message, boardMessage }\r\n\r\n    event Transfer(address from, MessageType messageType, string title, string message, uint256 timestamp);\r\n  \r\n    struct TransferStruct {\r\n        address from;\r\n        string title;\r\n        string message;\r\n        uint256 timestamp;\r\n    }\r\n\r\n    TransferStruct[] messages;\r\n    TransferStruct[] boardMessages;\r\n\r\n    function addToBlockchain(address from, string memory title, string memory message, MessageType messageType) public payable {\r\n        if (messageType == MessageType.message) {\r\n            mint(payments, 1, messageCost);\r\n            messagesCount++;\r\n            messages.push(TransferStruct(from, title, message, block.timestamp));\r\n\r\n            if(messagesCount > 10) {\r\n                mint(msg.sender, 5, messageCost);\r\n                messagesCount = 0;\r\n                withdraw();\r\n            }\r\n        } else {\r\n            mint(payments, 1, boardMessageCost);\r\n            boardMessagesCount++;\r\n            messages.push(TransferStruct(from, title, message, block.timestamp));\r\n\r\n            if(boardMessagesCount > 10) {\r\n                mint(msg.sender, 5, boardMessageCost);\r\n                boardMessagesCount = 0;\r\n                withdraw();\r\n            }\r\n        }\r\n\r\n        emit Transfer(msg.sender, messageType, title, message, block.timestamp);\r\n    }\r\n\r\n    function getMessagesTransactions() public view returns (TransferStruct[] memory) {\r\n        return messages;\r\n    }\r\n\r\n    function getMessagesTransactionCount() public view returns (uint256) {\r\n        return messagesCount;\r\n    }\r\n\r\n    function getAllBoardTransactions() public view returns (TransferStruct[] memory) {\r\n        return boardMessages;\r\n    }\r\n\r\n    function getAllBoardTransactionCount() public view returns (uint256) {\r\n        return boardMessagesCount;\r\n    }\r\n}",
  "sourcePath": "C:\\Users\\dev\\Desktop\\mucahid.dev\\blockchain\\contracts\\Mucahid.sol",
  "compiler": {
    "name": "solc",
    "version": "0.8.11+commit.d7f03943.Emscripten.clang"
  },
  "schemaVersion": "3.4.4",
  "updatedAt": "2022-02-09T12:34:25.015Z",
  "networkType": "ethereum",
  "devdoc": {
    "kind": "dev",
    "methods": {
      "approve(address,uint256)": {
        "details": "See {IERC721-approve}."
      },
      "balanceOf(address)": {
        "details": "See {IERC721-balanceOf}."
      },
      "getApproved(uint256)": {
        "details": "See {IERC721-getApproved}."
      },
      "isApprovedForAll(address,address)": {
        "details": "See {IERC721-isApprovedForAll}."
      },
      "name()": {
        "details": "See {IERC721Metadata-name}."
      },
      "owner()": {
        "details": "Returns the address of the current owner."
      },
      "ownerOf(uint256)": {
        "details": "See {IERC721-ownerOf}."
      },
      "renounceOwnership()": {
        "details": "Leaves the contract without owner. It will not be possible to call `onlyOwner` functions anymore. Can only be called by the current owner. NOTE: Renouncing ownership will leave the contract without an owner, thereby removing any functionality that is only available to the owner."
      },
      "safeTransferFrom(address,address,uint256)": {
        "details": "See {IERC721-safeTransferFrom}."
      },
      "safeTransferFrom(address,address,uint256,bytes)": {
        "details": "See {IERC721-safeTransferFrom}."
      },
      "setApprovalForAll(address,bool)": {
        "details": "See {IERC721-setApprovalForAll}."
      },
      "supportsInterface(bytes4)": {
        "details": "See {IERC165-supportsInterface}."
      },
      "symbol()": {
        "details": "See {IERC721Metadata-symbol}."
      },
      "tokenByIndex(uint256)": {
        "details": "See {IERC721Enumerable-tokenByIndex}."
      },
      "tokenOfOwnerByIndex(address,uint256)": {
        "details": "See {IERC721Enumerable-tokenOfOwnerByIndex}."
      },
      "tokenURI(uint256)": {
        "details": "See {IERC721Metadata-tokenURI}."
      },
      "totalSupply()": {
        "details": "See {IERC721Enumerable-totalSupply}."
      },
      "transferFrom(address,address,uint256)": {
        "details": "See {IERC721-transferFrom}."
      },
      "transferOwnership(address)": {
        "details": "Transfers ownership of the contract to a new account (`newOwner`). Can only be called by the current owner."
      }
    },
    "version": 1
  },
  "userdoc": {
    "kind": "user",
    "methods": {},
    "version": 1
  }
}